{
  "contractName": "Election",
  "abi": [
    {
      "inputs": [
        {
          "internalType": "contract GorenCoinToken",
          "name": "_tokenContract",
          "type": "address"
        },
        {
          "internalType": "uint256",
          "name": "_tokenPrice",
          "type": "uint256"
        }
      ],
      "payable": false,
      "stateMutability": "nonpayable",
      "type": "constructor"
    },
    {
      "anonymous": false,
      "inputs": [
        {
          "indexed": false,
          "internalType": "uint256",
          "name": "candidateID",
          "type": "uint256"
        }
      ],
      "name": "AddedCandidate",
      "type": "event"
    },
    {
      "anonymous": false,
      "inputs": [
        {
          "indexed": true,
          "internalType": "uint256",
          "name": "_candidateId",
          "type": "uint256"
        }
      ],
      "name": "votedEvent",
      "type": "event"
    },
    {
      "constant": true,
      "inputs": [
        {
          "internalType": "uint256",
          "name": "",
          "type": "uint256"
        }
      ],
      "name": "candidates",
      "outputs": [
        {
          "internalType": "string",
          "name": "fullName",
          "type": "string"
        },
        {
          "internalType": "uint256",
          "name": "voteCount",
          "type": "uint256"
        }
      ],
      "payable": false,
      "stateMutability": "view",
      "type": "function"
    },
    {
      "constant": true,
      "inputs": [],
      "name": "countCandidates",
      "outputs": [
        {
          "internalType": "uint256",
          "name": "",
          "type": "uint256"
        }
      ],
      "payable": false,
      "stateMutability": "view",
      "type": "function"
    },
    {
      "constant": true,
      "inputs": [],
      "name": "owner",
      "outputs": [
        {
          "internalType": "address payable",
          "name": "",
          "type": "address"
        }
      ],
      "payable": false,
      "stateMutability": "view",
      "type": "function"
    },
    {
      "constant": true,
      "inputs": [],
      "name": "tokenContract",
      "outputs": [
        {
          "internalType": "contract GorenCoinToken",
          "name": "",
          "type": "address"
        }
      ],
      "payable": false,
      "stateMutability": "view",
      "type": "function"
    },
    {
      "constant": true,
      "inputs": [],
      "name": "tokenPrice",
      "outputs": [
        {
          "internalType": "uint256",
          "name": "",
          "type": "uint256"
        }
      ],
      "payable": false,
      "stateMutability": "view",
      "type": "function"
    },
    {
      "constant": true,
      "inputs": [],
      "name": "totalVotes",
      "outputs": [
        {
          "internalType": "uint256",
          "name": "",
          "type": "uint256"
        }
      ],
      "payable": false,
      "stateMutability": "view",
      "type": "function"
    },
    {
      "constant": true,
      "inputs": [],
      "name": "voteLive",
      "outputs": [
        {
          "internalType": "bool",
          "name": "",
          "type": "bool"
        }
      ],
      "payable": false,
      "stateMutability": "view",
      "type": "function"
    },
    {
      "constant": true,
      "inputs": [
        {
          "internalType": "address",
          "name": "",
          "type": "address"
        }
      ],
      "name": "voters",
      "outputs": [
        {
          "internalType": "bool",
          "name": "authorized",
          "type": "bool"
        },
        {
          "internalType": "bool",
          "name": "voted",
          "type": "bool"
        },
        {
          "internalType": "uint256",
          "name": "vote",
          "type": "uint256"
        }
      ],
      "payable": false,
      "stateMutability": "view",
      "type": "function"
    },
    {
      "constant": false,
      "inputs": [],
      "name": "startVote",
      "outputs": [],
      "payable": false,
      "stateMutability": "nonpayable",
      "type": "function"
    },
    {
      "constant": false,
      "inputs": [],
      "name": "endVote",
      "outputs": [
        {
          "internalType": "string",
          "name": "",
          "type": "string"
        }
      ],
      "payable": false,
      "stateMutability": "nonpayable",
      "type": "function"
    },
    {
      "constant": false,
      "inputs": [
        {
          "internalType": "string",
          "name": "_fullName",
          "type": "string"
        }
      ],
      "name": "addCandidate",
      "outputs": [],
      "payable": false,
      "stateMutability": "nonpayable",
      "type": "function"
    },
    {
      "constant": true,
      "inputs": [],
      "name": "getNumOfCandidates",
      "outputs": [
        {
          "internalType": "uint256",
          "name": "",
          "type": "uint256"
        }
      ],
      "payable": false,
      "stateMutability": "view",
      "type": "function"
    },
    {
      "constant": false,
      "inputs": [
        {
          "internalType": "address",
          "name": "_person",
          "type": "address"
        }
      ],
      "name": "authorize",
      "outputs": [],
      "payable": false,
      "stateMutability": "nonpayable",
      "type": "function"
    },
    {
      "constant": false,
      "inputs": [
        {
          "internalType": "uint256",
          "name": "_voteIndex",
          "type": "uint256"
        }
      ],
      "name": "vote",
      "outputs": [],
      "payable": false,
      "stateMutability": "nonpayable",
      "type": "function"
    },
    {
      "constant": false,
      "inputs": [],
      "name": "end",
      "outputs": [],
      "payable": false,
      "stateMutability": "nonpayable",
      "type": "function"
    }
  ],
  "bytecode": "0x60806040523480156200001157600080fd5b506040516200178038038062001780833981810160405262000037919081019062000351565b336000806101000a81548173ffffffffffffffffffffffffffffffffffffffff021916908373ffffffffffffffffffffffffffffffffffffffff16021790555081600160006101000a81548173ffffffffffffffffffffffffffffffffffffffff021916908373ffffffffffffffffffffffffffffffffffffffff16021790555080600281905550620001056040518060400160405280600481526020017f74657374000000000000000000000000000000000000000000000000000000008152506200010d60201b60201c565b5050620004bb565b3373ffffffffffffffffffffffffffffffffffffffff166000809054906101000a900473ffffffffffffffffffffffffffffffffffffffff1673ffffffffffffffffffffffffffffffffffffffff16146200019f576040517f08c379a00000000000000000000000000000000000000000000000000000000081526004016200019690620003e5565b60405180910390fd5b6004604051806040016040528083815260200160008152509080600181540180825580915050906001820390600052602060002090600202016000909192909190915060008201518160000190805190602001906200020092919062000274565b506020820151816001015550505060016006600082825401925050819055507fec542c373a064661ffef02d633752debf28f3e6c9f253680822d9ccf8b47aec6620002506200026a60201b60201c565b6040516200025f919062000407565b60405180910390a150565b6000600654905090565b828054600181600116156101000203166002900490600052602060002090601f016020900481019282601f10620002b757805160ff1916838001178555620002e8565b82800160010185558215620002e8579182015b82811115620002e7578251825591602001919060010190620002ca565b5b509050620002f79190620002fb565b5090565b6200032091905b808211156200031c57600081600090555060010162000302565b5090565b90565b600081519050620003348162000487565b92915050565b6000815190506200034b81620004a1565b92915050565b600080604083850312156200036557600080fd5b6000620003758582860162000323565b925050602062000388858286016200033a565b9150509250929050565b6000620003a160098362000424565b91507f4e6f74204f776e657200000000000000000000000000000000000000000000006000830152602082019050919050565b620003df816200047d565b82525050565b60006020820190508181036000830152620004008162000392565b9050919050565b60006020820190506200041e6000830184620003d4565b92915050565b600082825260208201905092915050565b600062000442826200045d565b9050919050565b6000620004568262000435565b9050919050565b600073ffffffffffffffffffffffffffffffffffffffff82169050919050565b6000819050919050565b620004928162000449565b81146200049e57600080fd5b50565b620004ac816200047d565b8114620004b857600080fd5b50565b6112b580620004cb6000396000f3fe608060405234801561001057600080fd5b50600436106100f55760003560e01c80638da5cb5b11610097578063b86eda9111610066578063b86eda9114610251578063b92239461461026f578063e8685ba11461028d578063efbe1c1c146102ab576100f5565b80638da5cb5b146101c7578063a3ec138d146101e5578063b424ceb514610217578063b6a5d7de14610235576100f5565b8063462e91ec116100d3578063462e91ec146101655780634c0a6af01461018157806355a373d61461018b5780637ff9b596146101a9576100f5565b80630121b93f146100fa5780630d15fd77146101165780633477ee2e14610134575b600080fd5b610114600480360361010f9190810190610e21565b6102b5565b005b61011e610542565b60405161012b9190611079565b60405180910390f35b61014e60048036036101499190810190610e21565b610548565b60405161015c929190611029565b60405180910390f35b61017f600480360361017a9190810190610de0565b610611565b005b61018961075f565b005b61019361080b565b6040516101a09190610fec565b60405180910390f35b6101b1610831565b6040516101be9190611079565b60405180910390f35b6101cf610837565b6040516101dc9190610f56565b60405180910390f35b6101ff60048036036101fa9190810190610d8e565b61085c565b60405161020e93929190610fb5565b60405180910390f35b61021f6108a0565b60405161022c9190610f9a565b60405180910390f35b61024f600480360361024a9190810190610d8e565b6108b3565b005b6102596109a0565b6040516102669190611079565b60405180910390f35b6102776109a6565b6040516102849190611007565b60405180910390f35b610295610b83565b6040516102a29190611079565b60405180910390f35b6102b3610b8d565b005b600060149054906101000a900460ff166102ce57600080fd5b600360003373ffffffffffffffffffffffffffffffffffffffff1673ffffffffffffffffffffffffffffffffffffffff16815260200190815260200160002060000160019054906101000a900460ff161561032857600080fd5b600360003373ffffffffffffffffffffffffffffffffffffffff1673ffffffffffffffffffffffffffffffffffffffff16815260200190815260200160002060000160009054906101000a900460ff1661038157600080fd5b80600360003373ffffffffffffffffffffffffffffffffffffffff1673ffffffffffffffffffffffffffffffffffffffff168152602001908152602001600020600101819055506001600360003373ffffffffffffffffffffffffffffffffffffffff1673ffffffffffffffffffffffffffffffffffffffff16815260200190815260200160002060000160016101000a81548160ff02191690831515021790555060016004828154811061043257fe5b9060005260206000209060020201600101600082825401925050819055506001600560008282540192505081905550600160009054906101000a900473ffffffffffffffffffffffffffffffffffffffff1673ffffffffffffffffffffffffffffffffffffffff1663a9059cbb3360016040518363ffffffff1660e01b81526004016104bf929190610f71565b602060405180830381600087803b1580156104d957600080fd5b505af11580156104ed573d6000803e3d6000fd5b505050506040513d601f19601f820116820180604052506105119190810190610db7565b50807ffff3c900d938d21d0990d786e819f29b8d05c1ef587b462b939609625b684b1660405160405180910390a250565b60055481565b6004818154811061055557fe5b9060005260206000209060020201600091509050806000018054600181600116156101000203166002900480601f0160208091040260200160405190810160405280929190818152602001828054600181600116156101000203166002900480156106015780601f106105d657610100808354040283529160200191610601565b820191906000526020600020905b8154815290600101906020018083116105e457829003601f168201915b5050505050908060010154905082565b3373ffffffffffffffffffffffffffffffffffffffff166000809054906101000a900473ffffffffffffffffffffffffffffffffffffffff1673ffffffffffffffffffffffffffffffffffffffff16146106a0576040517f08c379a000000000000000000000000000000000000000000000000000000000815260040161069790611059565b60405180910390fd5b6004604051806040016040528083815260200160008152509080600181540180825580915050906001820390600052602060002090600202016000909192909190915060008201518160000190805190602001906106ff929190610c56565b506020820151816001015550505060016006600082825401925050819055507fec542c373a064661ffef02d633752debf28f3e6c9f253680822d9ccf8b47aec6610747610b83565b6040516107549190611079565b60405180910390a150565b3373ffffffffffffffffffffffffffffffffffffffff166000809054906101000a900473ffffffffffffffffffffffffffffffffffffffff1673ffffffffffffffffffffffffffffffffffffffff16146107ee576040517f08c379a00000000000000000000000000000000000000000000000000000000081526004016107e590611059565b60405180910390fd5b6001600060146101000a81548160ff021916908315150217905550565b600160009054906101000a900473ffffffffffffffffffffffffffffffffffffffff1681565b60025481565b6000809054906101000a900473ffffffffffffffffffffffffffffffffffffffff1681565b60036020528060005260406000206000915090508060000160009054906101000a900460ff16908060000160019054906101000a900460ff16908060010154905083565b600060149054906101000a900460ff1681565b3373ffffffffffffffffffffffffffffffffffffffff166000809054906101000a900473ffffffffffffffffffffffffffffffffffffffff1673ffffffffffffffffffffffffffffffffffffffff1614610942576040517f08c379a000000000000000000000000000000000000000000000000000000000815260040161093990611059565b60405180910390fd5b6001600360008373ffffffffffffffffffffffffffffffffffffffff1673ffffffffffffffffffffffffffffffffffffffff16815260200190815260200160002060000160006101000a81548160ff02191690831515021790555050565b60065481565b60603373ffffffffffffffffffffffffffffffffffffffff166000809054906101000a900473ffffffffffffffffffffffffffffffffffffffff1673ffffffffffffffffffffffffffffffffffffffff1614610a37576040517f08c379a0000000000000000000000000000000000000000000000000000000008152600401610a2e90611059565b60405180910390fd5b60008060146101000a81548160ff02191690831515021790555060006103e79050600080905060008090505b600654811015610ac4578160048281548110610a7b57fe5b90600052602060002090600202016001015410610ab75760048181548110610a9f57fe5b90600052602060002090600202016001015491508092505b8080600101915050610a63565b5060048281548110610ad257fe5b90600052602060002090600202016000018054600181600116156101000203166002900480601f016020809104026020016040519081016040528092919081815260200182805460018160011615610100020316600290048015610b775780601f10610b4c57610100808354040283529160200191610b77565b820191906000526020600020905b815481529060010190602001808311610b5a57829003601f168201915b50505050509250505090565b6000600654905090565b3373ffffffffffffffffffffffffffffffffffffffff166000809054906101000a900473ffffffffffffffffffffffffffffffffffffffff1673ffffffffffffffffffffffffffffffffffffffff1614610c1c576040517f08c379a0000000000000000000000000000000000000000000000000000000008152600401610c1390611059565b60405180910390fd5b6000809054906101000a900473ffffffffffffffffffffffffffffffffffffffff1673ffffffffffffffffffffffffffffffffffffffff16ff5b828054600181600116156101000203166002900490600052602060002090601f016020900481019282601f10610c9757805160ff1916838001178555610cc5565b82800160010185558215610cc5579182015b82811115610cc4578251825591602001919060010190610ca9565b5b509050610cd29190610cd6565b5090565b610cf891905b80821115610cf4576000816000905550600101610cdc565b5090565b90565b600081359050610d0a8161122d565b92915050565b600081519050610d1f81611244565b92915050565b600082601f830112610d3657600080fd5b8135610d49610d44826110c1565b611094565b91508082526020830160208301858383011115610d6557600080fd5b610d708382846111da565b50505092915050565b600081359050610d888161125b565b92915050565b600060208284031215610da057600080fd5b6000610dae84828501610cfb565b91505092915050565b600060208284031215610dc957600080fd5b6000610dd784828501610d10565b91505092915050565b600060208284031215610df257600080fd5b600082013567ffffffffffffffff811115610e0c57600080fd5b610e1884828501610d25565b91505092915050565b600060208284031215610e3357600080fd5b6000610e4184828501610d79565b91505092915050565b610e538161116e565b82525050565b610e6281611126565b82525050565b610e7181611138565b82525050565b610e8081611180565b82525050565b610e8f816111a4565b82525050565b6000610ea0826110f8565b610eaa8185611103565b9350610eba8185602086016111e9565b610ec38161121c565b840191505092915050565b6000610ed9826110ed565b610ee38185611103565b9350610ef38185602086016111e9565b610efc8161121c565b840191505092915050565b6000610f14600983611103565b91507f4e6f74204f776e657200000000000000000000000000000000000000000000006000830152602082019050919050565b610f5081611164565b82525050565b6000602082019050610f6b6000830184610e59565b92915050565b6000604082019050610f866000830185610e4a565b610f936020830184610e86565b9392505050565b6000602082019050610faf6000830184610e68565b92915050565b6000606082019050610fca6000830186610e68565b610fd76020830185610e68565b610fe46040830184610f47565b949350505050565b60006020820190506110016000830184610e77565b92915050565b600060208201905081810360008301526110218184610e95565b905092915050565b600060408201905081810360008301526110438185610ece565b90506110526020830184610f47565b9392505050565b6000602082019050818103600083015261107281610f07565b9050919050565b600060208201905061108e6000830184610f47565b92915050565b6000604051905081810181811067ffffffffffffffff821117156110b757600080fd5b8060405250919050565b600067ffffffffffffffff8211156110d857600080fd5b601f19601f8301169050602081019050919050565b600081519050919050565b600081519050919050565b600082825260208201905092915050565b600061111f82611144565b9050919050565b600061113182611144565b9050919050565b60008115159050919050565b600073ffffffffffffffffffffffffffffffffffffffff82169050919050565b6000819050919050565b6000611179826111b6565b9050919050565b600061118b82611192565b9050919050565b600061119d82611144565b9050919050565b60006111af82611164565b9050919050565b60006111c1826111c8565b9050919050565b60006111d382611144565b9050919050565b82818337600083830152505050565b60005b838110156112075780820151818401526020810190506111ec565b83811115611216576000848401525b50505050565b6000601f19601f8301169050919050565b61123681611114565b811461124157600080fd5b50565b61124d81611138565b811461125857600080fd5b50565b61126481611164565b811461126f57600080fd5b5056fea365627a7a7231582081bd71f8d4e3b8ff37fd82a4b631d99f92c405cc075c6cc9f05c7ac206a95d786c6578706572696d656e74616cf564736f6c63430005100040",
  "source": "// SPDX-License-Identifier: UNLICENSED\npragma solidity >=0.4.21 <0.8.0;\npragma experimental ABIEncoderV2;\n\nimport \"./GorenCoinToken.sol\";\n\ncontract Election {\n    // Structs\n    struct Candidate {\n        string fullName;\n        uint256 voteCount;\n    }\n\n    struct Voter {\n        bool authorized;\n        bool voted;\n        uint256 vote;\n    }\n\n    // Fields\n    address payable public owner;\n    bool public voteLive;\n\n    GorenCoinToken public tokenContract;\n    uint256 public tokenPrice;\n\n    mapping(address => Voter) public voters;\n    Candidate[] public candidates;\n    uint256 public totalVotes;\n    uint256 public countCandidates;\n\n    event AddedCandidate(uint256 candidateID);\n    // Voted event\n    event votedEvent(uint256 indexed _candidateId);\n\n    // Modifiers\n\n    modifier ownerOnly() {\n        require(owner == msg.sender, \"Not Owner\");\n        _;\n    }\n\n    modifier authToVote() {\n        require(voteLive);\n        require(!voters[msg.sender].voted);\n        require(voters[msg.sender].authorized);\n        _;\n    }\n\n    // Constructor\n    constructor(GorenCoinToken _tokenContract, uint256 _tokenPrice) public {\n        owner = msg.sender;\n\n        tokenContract = _tokenContract;\n        tokenPrice = _tokenPrice;\n\n        addCandidate(\"test\");\n    }\n\n    // Start Vote - Only by owner command\n    function startVote() public ownerOnly {\n        voteLive = true;\n    }\n\n    // End Vote - Triggered by time\n    function endVote() public ownerOnly returns (string memory) {\n        voteLive = false;\n        uint256 _winner = 999;\n        uint256 _maxVotes = 0;\n\n        for (uint256 i = 0; i < countCandidates; i++) {\n            if (candidates[i].voteCount >= _maxVotes) {\n                _maxVotes = candidates[i].voteCount;\n                _winner = i;\n            }\n        }\n\n        return candidates[_winner].fullName;\n    }\n\n    // Add new candidate\n    function addCandidate(string memory _fullName) public ownerOnly {\n        candidates.push(Candidate(_fullName, 0));\n        countCandidates += 1;\n        emit AddedCandidate(getNumOfCandidates());\n    }\n\n    // Get total num of candidates\n    function getNumOfCandidates() public view returns (uint256) {\n        return countCandidates;\n    }\n\n    // Autorize someone to vote - only by owner\n    function authorize(address _person) public ownerOnly {\n        voters[_person].authorized = true;\n    }\n\n    // Vote function with asserts\n    function vote(uint256 _voteIndex) public authToVote {\n        voters[msg.sender].vote = _voteIndex;\n        voters[msg.sender].voted = true;\n\n        candidates[_voteIndex].voteCount += 1;\n        totalVotes += 1;\n\n        tokenContract.transfer(msg.sender, 1);\n\n        emit votedEvent(_voteIndex);\n    }\n\n    // End Contract\n    function end() public ownerOnly {\n        selfdestruct(owner);\n    }\n}\n",
  "sourcePath": "/Users/orrgoren/Documents/HIT/Blockchain/Project/contracts/Election.sol",
  "compiler": {
    "name": "solc",
    "version": "0.5.16+commit.9c3226ce.Emscripten.clang"
  },
  "schemaVersion": "3.3.4",
  "updatedAt": "2021-03-14T20:47:27.671Z",
  "networkType": "ethereum",
  "devdoc": {
    "methods": {}
  },
  "userdoc": {
    "methods": {}
  }
}